:10F0000055C000006EC000006CC000006AC0000067
:10F0100068C0000066C0000064C0000062C000005C
:10F0200060C000005EC0000016C500005AC00000AD
:10F0300058C0000056C0000054C0000052C000007C
:10F0400050C000004EC000004CC000004AC000008C
:10F0500048C0000046C0000044C0000042C000009C
:10F0600040C000003EC000003CC000003AC00000AC
:10F0700038C0000036C0000034C0000032C00000BC
:10F0800030C000002EC000002CC000002AC00000CC
:10F0900028C0000026C00000007E1D7EC07E1D7EB0
:10F0A000C07E527E737EC07E937EA57E11241FBEDD
:10F0B000CFEFD0E1DEBFCDBF11E0A0E0B1E0ECE1E9
:10F0C000FEEF02C005900D92A83CB107D9F721E0F0
:10F0D000A8ECB1E001C01D92AB3DB207E1F751D001
:10F0E0009BC68ECF84E08093E9008091E80085FD87
:10F0F0000EC08091E8008B778093E8008091E80053
:10F1000082FDF3CF8EB38111F9CF80E00895809115
:10F11000F100089593E09093E9009091E80095FF45
:10F1200003C08093F10008959091E8009E7790933A
:10F13000E8009091E80090FDF4CF9EB39111F9CFD3
:10F14000089584B78093DB0184B7877F84BF88E10B
:10F150000FB6F89480936000109260000FBE90E0AC
:10F1600080E80FB6F89480936100909361000FBE21
:10F170006A98729A8FEB9DE50197F1F700C0000045
:10F180000895CF93DF9300D01F92CDB7DEB70091E3
:10F190008002109181021092810210928002D1DFD0
:10F1A0002091DB01629909C023FF17C08091000103
:10F1B000909101010817190781F023FF07C0809182
:10F1C0000001909101010817190739F0E0E0F0E023
:10F1D00085919491019609F08FC281E085BF82E00C
:10F1E00085BF7098689A709A1BD478948FEF80933B
:10F1F000D0011092CF0183E085BDA4E02A2EB3E0B8
:10F200003B2E11E005E0702E66246394809102018C
:10F21000882309F460C22092E9008091E80082FF0F
:10F220001FC21092C9011092C8015CDF982F85346B
:10F2300039F088E8890F823010F0943519F452DFE4
:10F240008DE09DC19035E1F39C34D1F3943711F4F6
:10F2500083E470C0913611F489E591C1913491F441
:10F2600041DF082F3FDF90E0880F991F202F30E00B
:10F27000322F2227330F822B932BAA2797FDA0959D
:10F28000BA2F9BC1903711F483E579C1933571F49E
:10F2900070ECE72E71E0F72EF70181917F013ADFE4
:10F2A000F7ECEF16F1E0FF06B9F7B3C1963521F49C
:10F2B00081E330DF80E363C1933731F482E82ADFF2
:10F2C00086E928DF8EE15BC19536A1F4E0E0F0E04D
:10F2D00030925700E89507B600FCFDCF70925700BA
:10F2E000E89507B600FCFDCFF395E11520EFF20796
:10F2F00079F7A6CF923721F489E0E1E0F0E011C080
:10F30000963421F4E0E0F0E089E00BC09E3421F473
:10F3100089E0E3E0F0E005C0913539F489E0E2E00E
:10F32000F0E08093570084912AC1923631F489E548
:10F33000F1DE81E0EFDE80E022C1923419F09736F1
:10F3400009F0D5C09983CEDEA82EB12CBA2CAA2400
:10F35000C9DEA82AC7DE082F8BEB800F9981823087
:10F3600010F08FE30CC1973609F04AC0F1E1F09339
:10F370005700E8954501B12C8114910409F449C165
:10F38000C090CB01D090CC01E090CD01F090CE01A7
:10F390000634B9F4EB2DF0E0EC29FD298491BADEB6
:10F3A000BB2069F022E0C20ED11CE11CF11CC0920E
:10F3B000CB01D092CC01E092CD01F092CE01B126EA
:10F3C0001BC0D701C601B695A795979587950ED511
:10F3D000A1DE8091CB019091CC01A091CD01B091A3
:10F3E000CE010296A11DB11D8093CB019093CC015B
:10F3F000A093CD01B093CE0181E0881A9108BCCFD3
:10F40000C090CB01D090CC01E090CD01F090CE0126
:10F41000063449F4F60130925700E89507B600FC2F
:10F42000FDCF6092CA01BB82AA82412C512CEA8195
:10F43000FB81EF2B09F450C0063431F5552001F162
:10F440008090CB019090CC01A090CD01B090CE01E6
:10F4500049DE242D30E0382BF401090110935700C8
:10F46000E8951124F2E08F0E911CA11CB11C809232
:10F47000CB019092CC01A092CD01B092CE0102C0FE
:10F4800031DE482E512622C02DDE682F8091CB011F
:10F490009091CC01A091CD01B091CE01B695A795E8
:10F4A00097958795ABD48091CB019091CC01A09199
:10F4B000CD01B091CE010296A11DB11D8093CB016B
:10F4C0009093CC01A093CD01B093CE018A819B8112
:10F4D00001979B838A83ABCF063409F0B1CEF60146
:10F4E00070925700E89507B600FCFDCFA9CE933483
:10F4F00069F4E090CB01F090CC01F4DD90E0F701ED
:10F500000C0110935700E89511249ACE9336F9F424
:10F51000C090CB01D090CC01E090CD01F090CE0115
:10F52000E1DDF601E16090E00C0110935700E895F1
:10F530001124F2E0CF0ED11CE11CF11CC092CB01D2
:10F54000D092CC01E092CD01F092CE0179CE9D36E1
:10F5500059F4E091CB01F091CC0170925700E895FD
:10F5600007B600FCFDCF6CCE923559F4E091CB018B
:10F57000F091CC01E590F4908F2DCCDD8E2DCADD7D
:10F5800048C0943419F5AEDD682F8091CB0190917D
:10F59000CC01A091CD01B091CE01B695A7959795DC
:10F5A00087952CD48091CB019091CC01A091CD0175
:10F5B000B091CE010296A11DB11D8093CB01909315
:10F5C000CC01A093CD01B093CE013ACE9436F1F4A4
:10F5D000C090CB01D090CC01E090CD01F090CE0155
:10F5E000D701C601B695A79597958795FFD392DD6C
:10F5F00022E0C20ED11CE11CF11CC092CB01D092C2
:10F60000CC01E092CD01F092CE0103C09B3109F014
:10F61000A8CE3092E9009091E8008091E8008E77C2
:10F620008093E80095FD11C08091E80080FD04C042
:10F630008EB38111F9CF14C08091E8008E7780934A
:10F64000E80003C08EB3882359F08091E80080FF62
:10F65000F9CF2092E9008091E8008B778093E80051
:10F66000A4D38091C8019091C901893E914010F0C6
:10F6700010920201AA9B26C0AA9A9091CF01809174
:10F68000D001992341F08F3F21F41092CF018EEFEA
:10F690000AC08F5F08C0811105C06092CF016092DF
:10F6A000D00103C081508093D0018091CA0188238A
:10F6B00049F08091C8019091C90101969093C901C8
:10F6C0008093C80196B58091D001981710F4709A74
:10F6D0009DCD70989BCD8091E00081608093E0008B
:10F6E0002DE088E190E00FB6F894A8958093600033
:10F6F0000FBE20936000FFCF85B7806890E00FB603
:10F70000F89485BF0FBE85BF7098689A709AE0E044
:10F71000F0E0099542E061EC82E00FD142E161E85E
:10F7200083E00BD142E160E884E007C18091D3011E
:10F73000982F9F77913299F59091D401913229F0C9
:10F74000923229F1903259F510C0813A41F58091F9
:10F75000E800877F8093E80067E070E083E091E055
:10F7600059D08091E8008B770FC08132C1F480912D
:10F77000E800877F8093E80067E070E083E091E035
:10F78000A0D08091E8008E778093E80008958132C0
:10F7900031F48091E800877F8093E800E2C008950B
:10F7A000292F30E02230310539F02330310549F07E
:10F7B0002130310571F412C08EE390E020E731E092
:10F7C00025C0882381F0813099F08230B1F08330F8
:10F7D000C9F080E090E020E030E018C082E190E0E5
:10F7E0002EEA31E013C084E090E02CE631E00EC058
:10F7F00080E290E02AE431E009C08EE290E02AE164
:10F8000031E004C08EE090E02AE031E0FA0131837B
:10F81000208308952091D9013091DA012617370706
:10F8200048F06115710539F42091E8002E77209396
:10F83000E80001C0B901FC0120E06115710591F1FA
:10F840008EB38823D1F18530D1F18091E80083FD1A
:10F8500032C08091E80082FF06C08091E80082FFFC
:10F8600024C080E008958091E80080FFE6CF809179
:10F87000F2009091F3006115710551F08830910507
:10F8800038F421912093F100615071090196F3CF72
:10F8900021E0089709F020E08091E8008E778093BE
:10F8A000E800CBCF2111CCCFD8CF8EB3882329F05D
:10F8B000853099F604C081E0089582E0089583E0E0
:10F8C00008956115710529F42091E8002B772093A4
:10F8D000E8006115710521F12EB3222351F1253085
:10F8E00051F12091E80023FD20C02091E80022FF83
:10F8F000F3CFFC01CF012091F2003091F300232BD4
:10F9000019F38091F1008193CF0161507109611564
:10F91000710581F7D9CF8EB3882359F0853059F01E
:10F920008091E80080FFF7CF02C081E0089580E079
:10F93000089582E0089583E008958F708093E90030
:10F94000EBEEF0E0808181608083EDEEF0E01082EC
:10F950006093EC0040838091EE00881F8827881F09
:10F9600008958091D30187FD05C08091E80080FF54
:10F970000DC010C08091E80082FD04C08EB38111DB
:10F98000F9CF08958091E8008B7707C08EB381117D
:10F99000ECCF08958091E8008E778093E800089579
:10F9A0000F931F93CF93DF9349D050D0C8EDD0E091
:10F9B00088818F77888388818068888388818F7D1C
:10F9C0008883E7EDF0E080818068808319BC1EBAEF
:10F9D0001092D10100EE10E0F80180818B7F8083CE
:10F9E00088818160888342E060E080E0A6DFE1EE0C
:10F9F000F0E080818E7F8083E2EEF0E080818160A4
:10FA00008083808188608083F80180818E7F8083FD
:10FA1000888180618883DF91CF911F910F91089534
:10FA2000E8EDF0E080818F7E8083E7EDF0E080817B
:10FA30008160808381E08093D201B2CFE8EDF0E075
:10FA400080818C7F80831092E20008951092DA000A
:10FA50001092E10008951F920F920FB60F92112499
:10FA60002F933F934F935F936F937F938F939F93C6
:10FA7000AF93BF93EF93FF938091DA0080FF1BC099
:10FA80008091D80080FF17C08091DA008E7F80932C
:10FA9000DA008091D90080FF0BC088E189BD8AE13E
:10FAA00089BD09B400FEFDCF81E08EBB7DD103C0CE
:10FAB00019BC1EBA79D18091E10080FF17C08091F6
:10FAC000E20080FF13C08091E2008E7F8093E2000D
:10FAD0008091E20080618093E2008091D800806292
:10FAE0008093D80019BC85E08EBB5ED18091E10087
:10FAF00084FF2EC08091E20084FF2AC088E189BD86
:10FB00008AE189BD09B400FEFDCF8091D8008F7DC8
:10FB10008093D8008091E1008F7E8093E1008091F6
:10FB2000E2008F7E8093E2008091E200816080930A
:10FB3000E2008091D101882311F084E007C0809118
:10FB4000E30087FF02C083E001C081E08EBB2CD1BF
:10FB50008091E10083FF21C08091E20083FF1DC0FE
:10FB60008091E100877F8093E10082E08EBB10925C
:10FB7000D1018091E1008E7F8093E1008091E200CD
:10FB80008E7F8093E2008091E20080618093E200AA
:10FB900042E060E080E0D1DE07D1FF91EF91BF91BC
:10FBA000AF919F918F917F916F915F914F913F9115
:10FBB0002F910F900FBE0F901F9018951F93CF930A
:10FBC000DF9300D0CDB7DEB7E3EDF1E08091F10037
:10FBD000819381E0EB3DF807C9F7A8DD8091E8004B
:10FBE00083FFCEC02091D3013091D401832F90E0C8
:10FBF0008A30910508F0C4C0FC01E45BF748F0C00E
:10FC0000203881F0223809F0BBC08091D7018F7075
:10FC10008093E9009091EB0095FB992790F9109261
:10FC2000E90001C090E08091E800877F8093E800C0
:10FC30009093F1001092F10081C0822F8D7F09F026
:10FC40009FC0223009F09CC08091D501811124C051
:10FC50002091D7012F7009F493C02093E90080917F
:10FC6000EB0080FF19C08091EB00333011F480620B
:10FC700011C080618093EB0081E090E0022E01C012
:10FC8000880F0A94EAF78093EA001092EA008091C4
:10FC9000EB0088608093EB001092E9008091E8000F
:10FCA000877F4FC021116CC01091D5011F778091C3
:10FCB000E3008078812B8093E3008091E800877FC8
:10FCC0008093E8004EDE8091E80080FFFCCF8091B9
:10FCD000E30080688093E300112311F083E001C00A
:10FCE00082E08EBB4DC02058223008F049C0AE01E2
:10FCF0004F5F5F4F6091D7018091D5019091D60100
:10FD00004FDD009709F43CC02091E800277F209345
:10FD1000E800BC0189819A817DDD8091E8008B77C4
:10FD20008093E8002DC0203859F58091E800877F46
:10FD30008093E8008091D1018093F1008091E800E8
:10FD40008E778093E8000DDE1BC0211119C09091C1
:10FD5000D5019230A8F48091E800877F8093E80075
:10FD60009093D101FEDD8091D101811104C0809179
:10FD7000E30087FF02C084E001C081E08EBBCADCE3
:10FD80008091E80083FF0AC08091E800877F80931C
:10FD9000E8008091EB0080628093EB000F900F9061
:10FDA000DF91CF911F9108950895CF938EB388234B
:10FDB000A9F08091E9008F709091EC0090FF02C053
:10FDC00090E801C090E0C92FC82B1092E900809103
:10FDD000E80083FDF3DECF70C093E900CF91089572
:10FDE000EE0FFF1F0590F491E02D0994F999FECFD5
:10FDF00092BD81BDF89A992780B50895262FF9996B
:10FE0000FECF1FBA92BD81BD20BD0FB6F894FA9AFD
:0CFE1000F99A0FBE01960895F894FFCFF8
:10FE1C00777701000000000000080E03300030006E
:10FE2C00340035003800340000002E034D00610012
:10FE3C007400740061006900720054006500630076
:10FE4C00680020004300440043002000530065007C
:10FE5C007200690061006C00000020034D0061001D
:10FE6C007400740061006900720054006500630046
:10FE7C00680020004C004C004300000004030904FF
:10FE8C0009023E0002010080320904000001020256
:10FE9C0001000524001001042402020524060001BF
:10FEAC00070582030800FF09040100020A00000094
:10FEBC000705040210000507058302100005120156
:10FECC00100102000008D0165705000101020301C1
:08FEDC004D542D434443200066
:040000030000F00009
:00000001FF
