:020000021000EC
:10F000004BC0000066C0000064C0000062C0000089
:10F0100060C000005EC000005CC000005AC000007C
:10F0200058C0000056C000004CC5000052C000008F
:10F0300050C000004EC000004CC000004AC000009C
:10F0400048C0000046C0000044C0000042C00000AC
:10F0500040C000003EC000003CC000003AC00000BC
:10F0600038C0000036C0000034C0000032C00000CC
:10F0700030C000002EC000002CC000002AC00000DC
:10F0800028C0000026C0000024C0000022C00000EC
:10F0900020C000001EC0000011241FBECFEFD0E230
:10F0A000DEBFCDBF11E0A0E0B1E0ECE9FEEF01E092
:10F0B0000BBF02C007900D92A83CB107D9F721E021
:10F0C000A8ECB1E001C01D92AB3DB207E1F751D011
:10F0D000E3C696CF84E08093E9008091E80085FD47
:10F0E0000EC08091E8008B778093E8008091E80063
:10F0F00082FDF3CF8EB38111F9CF80E00895809126
:10F10000F100089593E09093E9009091E80095FF55
:10F1100003C08093F10008959091E8009E7790934A
:10F12000E8009091E80090FDF4CF9EB39111F9CFE3
:10F13000089584B78093DB0184B7877F84BF88E11B
:10F140000FB6F89480936000109260000FBE90E0BC
:10F1500080E80FB6F89480936100909361000FBE31
:10F160006A98729A8FEB9DE50197F1F700C0000055
:10F170000895CF93DF9300D000D000D0CDB7DEB795
:10F1800000918002109181021092810210928002FF
:10F19000D0DF2091DB01629909C023FF17C0809165
:10F1A0000001909101010817190781F023FF07C0A2
:10F1B00080910001909101010817190739F0E0E0F2
:10F1C000F0E085919491019609F0CCC281E085BF71
:10F1D00082E085BF7098689A709A58D478948FEFBF
:10F1E0008093D0011092CF0183E085BDF4E04F2ED3
:10F1F000A3E09A2EBB24B394B5E08B2E77247394AE
:10F2000013E0212E312C80910201882309F499C248
:10F210004092E9008091E80082FF58C21092C90133
:10F220001092C80157DF982F853439F088E8890F8C
:10F23000823010F0943519F44DDF8DE0D6C1903551
:10F24000E1F39C34D1F3943711F483E478C0913620
:10F2500011F489E5CAC1913491F43CDF182F3ADFEB
:10F2600090E0880F991F212F30E0322F2227330F93
:10F27000822B932BAA2797FDA095BA2FD4C1903744
:10F2800011F483E5B2C1933559F400EC11E0F801B3
:10F2900081918F0137DFF1E0073C1F07C1F7EFC114
:10F2A000963521F481E32EDF80E39FC1933731F45B
:10F2B00082E828DF87E926DF8EE197C1953601F5E0
:10F2C00080E090E0DC01FC01A0935B00909257008D
:10F2D000E89507B600FCFDCFFC01A0935B0080928F
:10F2E0005700E89507B600FCFDCF9F5FAF4FBF4FBB
:10F2F000811520EF920721E0A207B10521F79DCFEC
:10F30000923721F489E0E1E0F0E010C0963421F476
:10F31000E0E0F0E089E00AC09E3419F489E0F101F0
:10F3200005C0913539F489E0E2E0F0E080935700C0
:10F3300084915BC1923631F489E5E4DE81E0E2DE5E
:10F3400080E053C1923419F0973609F0EFC09983E9
:10F35000C1DE282F30E0322F22272A833B83BADEFA
:10F360002A813B81282B2A833B83B4DE182F8BEB29
:10F37000810F2A813B819981823010F08FE335C162
:10F38000973609F04FC081E180935700E895612CD2
:10F390002115310509F473C1C090CB01D090CC0187
:10F3A000E090CD01F090CE01D701C6011634D1F422
:10F3B0008629ABBFFC0187912A833B83A3DE2A8188
:10F3C0003B81662069F0F2E0CF0ED11CE11CF11CFC
:10F3D000C092CB01D092CC01E092CD01F092CE014F
:10F3E0006B241DC0B695A795979587952A833B8377
:10F3F0003DD588DE8091CB019091CC01A091CD01CB
:10F40000B091CE010296A11DB11D8093CB019093C6
:10F41000CC01A093CD01B093CE013B812A81215034
:10F420003109B6CFC090CB01D090CC01E090CD0196
:10F43000F090CE01163459F4F601E0925B00909200
:10F440005700E89507B600FCFDCF7092CA013E83D5
:10F450002D83512C612CED81FE81EF2B09F459C0D5
:10F46000163479F5662049F14091CB015091CC01D9
:10F470006091CD017091CE0149835A836B837C8367
:10F4800029DE252D30E0382B49815A816B817C8122
:10F490000901FA0160935B00B0925700E8951124CE
:10F4A0004E5F5F4F6F4F7F4F4093CB015093CC0126
:10F4B0006093CD017093CE0102C00CDE582E6B24F8
:10F4C00022C008DE682F8091CB019091CC01A091E1
:10F4D000CD01B091CE01B695A79597958795CED4DD
:10F4E0008091CB019091CC01A091CD01B091CE0142
:10F4F0000296A11DB11D8093CB019093CC01A093E6
:10F50000CD01B093CE018D819E8101979E838D8325
:10F51000A2CF163409F091CEF601E0925B00809202
:10F520005700E89507B600FCFDCF87CE933499F4D9
:10F53000C090CB01D090CC01E090CD01F090CE01F5
:10F54000C9DD90E00C01F601E0925B00B09257003B
:10F55000E895112472CE933619F5C090CB01D09066
:10F56000CC01E090CD01F090CE01B4DDB701A60151
:10F57000416090E00C01FA0160935B00B09257008B
:10F58000E8951124F2E0CF0ED11CE11CF11CC092D1
:10F59000CB01D092CC01E092CD01F092CE014DCEC4
:10F5A0009D3691F48091CB019091CC01A091CD0139
:10F5B000B091CE01FC01A0935B0080925700E895CA
:10F5C00007B600FCFDCF39CE923589F48091CB018E
:10F5D0009091CC01A091CD01B091CE01ABBFFC01C7
:10F5E00007911691812F8EDD802F8CDD48C09434D9
:10F5F00019F570DD682F8091CB019091CC01A0911D
:10F60000CD01B091CE01B695A7959795879536D443
:10F610008091CB019091CC01A091CD01B091CE0110
:10F620000296A11DB11D8093CB019093CC01A093B4
:10F63000CD01B093CE0101CE9436F1F4C090CB0150
:10F64000D090CC01E090CD01F090CE01D701C60161
:10F65000B695A7959795879509D454DD22E0C20EFB
:10F66000D11CE11CF11CC092CB01D092CC01E092E4
:10F67000CD01F092CE0103C09B3109F07FCE909274
:10F68000E9009091E8008091E8008E778093E8008F
:10F6900095FD11C08091E80080FD04C08EB38111FA
:10F6A000F9CF14C08091E8008E778093E80003C002
:10F6B0008EB3882359F08091E80080FFF9CF409203
:10F6C000E9008091E8008B778093E800B4D38091C3
:10F6D000C8019091C901893E914010F01092020139
:10F6E000AA9B26C0AA9A9091CF018091D00199231C
:10F6F00041F08F3F21F41092CF018EEF0AC08F5F4F
:10F7000008C0811105C07092CF017092D00103C072
:10F7100081508093D0018091CA01882349F0809163
:10F72000C8019091C90101969093C9018093C801C5
:10F7300096B58091D001981710F4709A64CD7098A6
:10F7400062CD8091E00081608093E0002DE088E14F
:10F7500090E00FB6F894A895809360000FBE2093B8
:10F760006000FFCF85B7806890E00FB6F89485BF42
:10F770000FBE85BF7098689A709AE0E0F0E0099536
:10F7800042E061EC82E00FD142E161E883E00BD11D
:10F7900042E160E884E007C18091D301982F9F7710
:10F7A000913299F59091D401913229F0923229F158
:10F7B000903259F510C0813A41F58091E800877F79
:10F7C0008093E80067E070E083E091E059D0809199
:10F7D000E8008B770FC08132C1F48091E800877F09
:10F7E0008093E80067E070E083E091E0A0D0809132
:10F7F000E8008E778093E8000895813231F480919B
:10F80000E800877F8093E800E2C00895292F30E068
:10F810002230310539F02330310549F021303105EE
:10F8200071F412C08EE390E020E731E025C0882318
:10F8300081F0813099F08230B1F08330C9F080E0FE
:10F8400090E020E030E018C082E190E02EEA31E064
:10F8500013C084E090E02CE631E00EC080E290E03E
:10F860002AE431E009C08EE290E02AE131E004C0F0
:10F870008EE090E02AE031E0FA01318320830895A0
:10F880002091D9013091DA012617370748F0611528
:10F89000710539F42091E8002E772093E80001C02B
:10F8A000B901FC0120E06115710591F18EB3882347
:10F8B000D1F18530D1F18091E80083FD32C0809193
:10F8C000E80082FF06C08091E80082FF24C080E04B
:10F8D00008958091E80080FFE6CF8091F20090913A
:10F8E000F3006115710551F08830910538F42191CC
:10F8F0002093F100615071090196F3CF21E0089740
:10F9000009F020E08091E8008E778093E800CBCF6B
:10F910002111CCCFD8CF8EB3882329F0853099F62A
:10F9200004C081E0089582E0089583E008956115A0
:10F93000710529F42091E8002B772093E8006115E8
:10F94000710521F12EB3222351F1253051F120917F
:10F95000E80023FD20C02091E80022FFF3CFFC0146
:10F96000CF012091F2003091F300232B19F3809105
:10F97000F1008193CF01615071096115710581F723
:10F98000D9CF8EB3882359F0853059F08091E800A3
:10F9900080FFF7CF02C081E0089580E0089582E003
:10F9A000089583E008958F708093E900EBEEF0E016
:10F9B000808181608083EDEEF0E010826093EC0046
:10F9C00040838091EE00881F8827881F08958091CA
:10F9D000D30187FD05C08091E80080FF0DC010C0F5
:10F9E0008091E80082FD04C08EB38111F9CF0895A3
:10F9F0008091E8008B7707C08EB38111ECCF08951A
:10FA00008091E8008E778093E80008950F931F930C
:10FA1000CF93DF9349D050D0C8EDD0E088818F7765
:10FA2000888388818068888388818F7D8883E7EDDB
:10FA3000F0E080818068808319BC1EBA1092D101E9
:10FA400000EE10E0F80180818B7F808388818160E7
:10FA5000888342E060E080E0A6DFE1EEF0E08081B4
:10FA60008E7F8083E2EEF0E0808181608083808100
:10FA700088608083F80180818E7F808388818061A7
:10FA80008883DF91CF911F910F910895E8EDF0E009
:10FA900080818F7E8083E7EDF0E0808181608083CC
:10FAA00081E08093D201B2CFE8EDF0E080818C7FDD
:10FAB00080831092E20008951092DA001092E10023
:10FAC00008951F920F920FB60F9211240BB60F924A
:10FAD0002F933F934F935F936F937F938F939F9356
:10FAE000AF93BF93EF93FF938091DA0080FF1BC029
:10FAF0008091D80080FF17C08091DA008E7F8093BC
:10FB0000DA008091D90080FF0BC084E189BD86E1D5
:10FB100089BD09B400FEFDCF81E08EBB8BD103C04F
:10FB200019BC1EBA87D18091E10080FF17C0809177
:10FB3000E20080FF13C08091E2008E7F8093E2009C
:10FB40008091E20080618093E2008091D800806221
:10FB50008093D80019BC85E08EBB6CD18091E10008
:10FB600084FF2EC08091E20084FF2AC084E189BD19
:10FB700086E189BD09B400FEFDCF8091D8008F7D5C
:10FB80008093D8008091E1008F7E8093E100809186
:10FB9000E2008F7E8093E2008091E200816080939A
:10FBA000E2008091D101882311F084E007C08091A8
:10FBB000E30087FF02C083E001C081E08EBB3AD141
:10FBC0008091E10083FF21C08091E20083FF1DC08E
:10FBD0008091E100877F8093E10082E08EBB1092EC
:10FBE000D1018091E1008E7F8093E1008091E2005D
:10FBF0008E7F8093E2008091E20080618093E2003A
:10FC000042E060E080E0CFDE15D1FF91EF91BF913F
:10FC1000AF919F918F917F916F915F914F913F91A4
:10FC20002F910F900BBE0F900FBE0F901F90189545
:10FC30001F93CF93DF9300D0CDB7DEB7E3EDF1E0B4
:10FC40008091F100819381E0EB3DF807C9F7A4DDD5
:10FC50008091E80083FFDAC09091D3018091D401B4
:10FC6000853009F465C030F4813059F168F0833093
:10FC700041F1CCC0883009F49CC0893009F4ABC094
:10FC8000863009F0C3C075C0903881F0923809F011
:10FC9000BDC08091D7018F708093E9009091EB00F7
:10FCA00095FB992790F91092E90001C090E08091AE
:10FCB000E800877F8093E8009093F1001092F100B4
:10FCC00083C0292F2D7F09F0A1C0923009F09EC07A
:10FCD0009091D501911126C02091D7012F7009F480
:10FCE00095C02093E9009091EB0090FF1BC08330FA
:10FCF00021F48091EB00806213C08091EB00806161
:10FD00008093EB0081E090E0022E01C0880F0A94FE
:10FD1000EAF78093EA001092EA008091EB00886095
:10FD20008093EB001092E9008091E800877F4FC03C
:10FD300091116CC01091D5011F778091E3008078FC
:10FD4000812B8093E3008091E800877F8093E80017
:10FD50003EDE8091E80080FFFCCF8091E300806868
:10FD60008093E300112311F083E001C082E08EBB99
:10FD70004DC09058923008F049C0AE014F5F5F4FC0
:10FD80006091D7018091D5019091D6013FDD009718
:10FD900009F43CC02091E800277F2093E800BC01D3
:10FDA00089819A816DDD8091E8008B778093E800EE
:10FDB0002DC0903859F58091E800877F8093E80046
:10FDC0008091D1018093F1008091E8008E7780933B
:10FDD000E800FDDD1BC0911119C09091D501923052
:10FDE000A8F48091E800877F8093E8009093D10188
:10FDF000EEDD8091D101811104C08091E30087FF85
:10FE000002C084E001C081E08EBBBADC8091E800D2
:10FE100083FF0AC08091E800877F8093E80080918B
:10FE2000EB0080628093EB000F900F90DF91CF91F9
:10FE30001F9108950895CF938EB38823A9F08091E0
:10FE4000E9008F709091EC0090FF02C090E801C033
:10FE500090E0C92FC82B1092E9008091E80083FD43
:10FE6000E7DECF70C093E900CF910895F999FECFF6
:10FE700092BD81BDF89A992780B50895262FF999EA
:10FE8000FECF1FBA92BD81BD20BD0FB6F894FA9A7D
:0CFE9000F99A0FBE01960895F894FFCF78
:10FE9C00777701000000000000080E0330003000EE
:10FEAC00340035003800350000002E034D00610091
:10FEBC0074007400610069007200540065006300F6
:10FECC0068002000430044004300200053006500FC
:10FEDC007200690061006C00000020034D0061009D
:10FEEC0074007400610069007200540065006300C6
:10FEFC00680020004C004C0043000000040309047F
:10FF0C0009023E00020100803209040000010202D5
:10FF1C00010005240010010424020205240600013E
:10FF2C00070582030800FF09040100020A00000013
:10FF3C0007050402100005070583021000051201D5
:10FF4C00100102000008D016570500010102030140
:08FF5C004D542D4344432000E5
:040000031000F000F9
:00000001FF
