:1070000043C000005CC000005AC0000058C000002F
:1070100056C0000054C0000052C0000050C0000024
:107020004EC000004CC000004AC00000D4C40000A4
:1070300046C0000044C0000042C0000040C0000044
:107040003EC000003CC000003AC0000038C0000054
:1070500036C0000034C0000032C0000030C0000064
:107060002EC000002CC000002AC0000028C0000074
:1070700026C00000A03DBD3D603EBD3D603EF23DEE
:10708000133E603E333E453E11241FBECFEFD4E099
:10709000DEBFCDBF11E0A0E0B1E0ECE5FDE702C04E
:1070A00005900D92A83CB107D9F721E0A8ECB1E01A
:1070B00001C01D92AB3DB207E1F751D04DC6A0CF44
:1070C00084E08093E9008091E80085FD0EC0809106
:1070D000E8008B778093E8008091E80082FDF3CF91
:1070E0008EB38111F9CF80E008958091F100089569
:1070F00093E09093E9009091E80095FF03C080939E
:10710000F10008959091E8009E779093E8009091A7
:10711000E80090FDF4CF9EB39111F9CF089584B7A4
:107120008093DB0184B7877F84BF88E10FB6F89432
:1071300080936000109260000FBE90E080E80FB670
:10714000F89480936100909361000FBE57985F9A06
:107150008FEB9DE50197F1F700C000000895CF93F4
:10716000DF9300D01F92CDB7DEB78091800290915F
:1071700081021092810210928002D1DF4F9904C0E7
:107180008091DB0183FF07C0E0E0F0E085919491FE
:10719000019609F090C281E085BF82E085BF0CD4E2
:1071A00078948FEF8093D0011092CF0183E085BD5A
:1071B000A4E02A2E01E03324339483E0782E95E076
:1071C000692E80910201882309F464C22092E900AB
:1071D0008091E80082FF2AC21092C9011092C80172
:1071E0006FDF982F853439F088E8890F823010F0EE
:1071F000943519F465DF8DE0A8C19035E1F39C3436
:10720000D1F3943721F48AE473DF80E09EC1913694
:1072100011F489E59AC1913491F452DF182F50DFAF
:1072200090E0880F991F212F30E0322F2227330F53
:10723000822B932BAA2797FDA095BA2FA4C1903734
:1072400011F483E582C1933571F470ECE72E71E09F
:10725000F72EF70181917F014BDFF7ECEF16F1E09C
:10726000FF06B9F7BCC1963521F481E341DF80E325
:107270006CC1933731F48AE83BDF85E939DF8EE171
:1072800064C19536A9F4E0E0F0E070925700E8950B
:1072900007B600FCFDCF60925700E89507B600FCEA
:1072A000FDCFE058FF4FE11520E7F20771F7A3CFBC
:1072B0009C3651F405DF809599E0E1E0F0E0082E7E
:1072C00090935700E89597CF923721F489E0E1E059
:1072D000F0E011C0963421F4E0E0F0E089E00BC06A
:1072E0009E3421F489E0E3E0F0E005C0913539F403
:1072F00089E0E2E0F0E080935700849126C1923665
:1073000031F489E5F5DE80E0F3DE80E81EC19234D9
:1073100019F0973609F0D1C09983D2DEA82EB12C8E
:10732000BA2CAA24CDDEA82ACBDE182F8BEB810F36
:107330009981823010F08FE308C1973609F047C079
:1073400081E180935700E8954501B12C81149104A7
:1073500009F445C1C090CB01D090CC01E090CD01A3
:10736000F090CE011634D1F4EB2DF0E0EC29FD299C
:107370008491BEDEBB2069F0F2E0CF0ED11CE11C8F
:10738000F11CC092CB01D092CC01E092CD01F092E1
:10739000CE0181E0B11080E0B82E15C0D701C60142
:1073A000B695A79597958795C1D4A2DE22E0C20E27
:1073B000D11CE11CF11CC092CB01D092CC01E09217
:1073C000CD01F092CE0181E0881A9108BFCFC09024
:1073D000CB01D090CC01E090CD01F090CE011634DD
:1073E00029F0BB82AA82412C512C31C0F601709247
:1073F0005700E89507B600FCFDCFF3CF163479F5BA
:10740000552051F18090CB019090CC01A090CD01FE
:10741000B090CE0155DE242D30E0382BF401090167
:1074200000935700E8951124F2E08F0E911CA11CE7
:10743000B11C8092CB019092CC01A092CD01B09270
:10744000CE0150268A819B8101979B838A83EA81A2
:10745000FB81EF2B99F626C033DE482EF2CF30DECB
:10746000682F8091CB019091CC01A091CD01B0917A
:10747000CE01B695A7959795879560D48091CB015D
:107480009091CC01A091CD01B091CE010296A11DA9
:10749000B11D8093CB019093CC01A093CD01B0930B
:1074A000CE01D0CF163409F0A6CEF6016092570077
:1074B000E89507B600FCFDCF9ECE933469F4E090CA
:1074C000CB01F090CC01FCDD90E0F7010C010093C2
:1074D0005700E89511248FCE9336F9F4C090CB0174
:1074E000D090CC01E090CD01F090CE01E9DDF60125
:1074F000E16090E00C0100935700E8951124F2E060
:10750000CF0ED11CE11CF11CC092CB01D092CC015A
:10751000E092CD01F092CE016ECE9D3659F4E0910D
:10752000CB01F091CC0160925700E89507B600FCC2
:10753000FDCF61CE923559F4E091CB01F091CC01B1
:10754000E590F4908F2DD4DD8E2DD2DD48C094349B
:1075500019F5B6DD682F8091CB019091CC01A091F7
:10756000CD01B091CE01B695A79597958795E6D3B5
:107570008091CB019091CC01A091CD01B091CE0131
:107580000296A11DB11D8093CB019093CC01A093D5
:10759000CD01B093CE012FCE9436F1F4C090CB0143
:1075A000D090CC01E090CD01F090CE01D701C60182
:1075B000B695A79597958795B9D39ADD22E0C20E27
:1075C000D11CE11CF11CC092CB01D092CC01E09205
:1075D000CD01F092CE0103C09B3109F0ACCE709288
:1075E000E9009091E8008091E8008E778093E800B0
:1075F00095FD11C08091E80080FD04C08EB381111B
:10760000F9CF14C08091E8008E778093E80003C022
:107610008EB3882359F08091E80080FFF9CF209243
:10762000E9008091E8008B778093E8005ED3809139
:10763000C8019091C901893E914010F01092020159
:10764000AA9BBFCDAA9A9091CF018091D001992396
:1076500041F08F3F21F41092CF018EEF0AC08F5F6F
:1076600008C0811105C03092CF013092D00103C013
:1076700081508093D0018091CA01882309F49DCD67
:107680008091C8019091C90101969093C90180939E
:10769000C80193CD8091E00081608093E0002DE0EF
:1076A00088E190E00FB6F894A895809360000FBE33
:1076B00020936000FFCFE0E0F0E0099542E061EC4C
:1076C00082E013D142E161E883E00FD142E160E85A
:1076D00084E00BC18091D301982F9F77913299F567
:1076E0009091D401913229F0923229F1903259F5DA
:1076F00010C0813A41F58091E800877F8093E800CF
:1077000067E070E083E091E059D08091E8008B77EA
:107710000FC08132C1F48091E800877F8093E80038
:1077200067E070E083E091E0A6D08091E8008E777A
:107730008093E8000895813231F48091E800877FDA
:107740008093E800E6C00895292F30E0223031050B
:1077500039F02330310549F02130310571F412C080
:107760008EE390E020E731E025C0882381F081306E
:1077700099F08230B1F08330C9F080E090E020E0F1
:1077800030E018C082E190E02EEA31E013C084E0DE
:1077900090E02CE631E00EC080E290E02AE431E097
:1077A00009C08EE290E02AE131E004C08EE090E072
:1077B0002AE031E0FA013183208308952091D90134
:1077C0003091DA012617370748F06115710539F451
:1077D0002091E8002E772093E80001C0B90120E055
:1077E00061157105C9F13EB3332309F440C035304A
:1077F00009F43FC03091E80033FD37C03091E80014
:1078000032FF06C08091E80082FF29C080E0089521
:107810003091E80030FFE4CF2091F20030E0FC012D
:10782000281B390BCF01820F931F6115710549F099
:107830008830910530F481918093F1006150710995
:10784000F1CF21E0089709F020E08091E8008E77E1
:107850008093E800CF01C4CF2111C5CFD3CF8EB321
:10786000882329F0853071F604C081E0089582E014
:10787000089583E008956115710529F42091E800C9
:107880002B772093E8006115710511F12EB32223A7
:1078900041F1253041F12091E80023FD1EC02091E7
:1078A000E80022FFF3CFFC01CF012091F200222358
:1078B00029F38091F1008193CF0161507109611525
:1078C000710591F7DBCF8EB3882359F0853059F0DD
:1078D0008091E80080FFF7CF02C081E0089580E04A
:1078E000089582E0089583E008958F708093E90001
:1078F000EBEEF0E0808181608083EDEEF0E01082BD
:107900006093EC0040838091EE00881F8827881FD9
:1079100008958091D30187FD05C08091E80080FF24
:107920000DC010C08091E80082FD04C08EB38111AB
:10793000F9CF08958091E8008B7707C08EB381114D
:10794000ECCF08958091E8008E778093E800089549
:107950003CD03ED08091D8008F778093D800809122
:10796000D80080688093D8008091D8008F7D809364
:10797000D80084E089BD86E089BD09B400FEFDCF52
:107980001EBA1092D10142E060E080E0AEDF80914B
:10799000E1008E7F8093E1008091E200816080931E
:1079A000E2008091E20088608093E2008091E00034
:1079B0008E7F8093E0000895E3E6F0E080818E7F83
:1079C000808381E08093D201C3CF1092E2000895BA
:1079D0001092E10008951F920F920FB60F9211249A
:1079E0002F933F934F935F936F937F938F939F93C7
:1079F000AF93BF93EF93FF938091E10080FF16C098
:107A00008091E20080FF12C08091E2008E7F80931F
:107A1000E2008091E20080618093E2008091D800D2
:107A200080628093D80019BC1EBA5ED18091E100BB
:107A300084FF2EC08091E20084FF2AC084E089BDCB
:107A400086E089BD09B400FEFDCF8091D8008F7D0E
:107A50008093D8008091E1008F7E8093E100809137
:107A6000E2008F7E8093E2008091E200816080934B
:107A7000E2008091D101882311F084E007C0809159
:107A8000E30087FF02C083E001C081E08EBB2CD100
:107A90008091E10083FF21C08091E20083FF1DC03F
:107AA0008091E100877F8093E10082E08EBB10929D
:107AB000D1018091E1008E7F8093E1008091E2000E
:107AC0008E7F8093E2008091E20080618093E200EB
:107AD00042E060E080E009DF07D1FF91EF91BF91C4
:107AE000AF919F918F917F916F915F914F913F9156
:107AF0002F910F900FBE0F901F9018951F93CF934B
:107B0000DF9300D0CDB7DEB7E3EDF1E08091F10077
:107B1000819381E0EB3DF807C9F7DCDD8091E80057
:107B200083FFCEC02091D3013091D401832F90E008
:107B30008A30910508F0C4C0FC01E65CF74CF0C047
:107B4000203881F0223809F0BBC08091D7018F70B6
:107B50008093E9009091EB0095FB992790F91092A2
:107B6000E90001C090E08091E800877F8093E80001
:107B70009093F1001092F10081C0822F8D7F09F067
:107B80009FC0223009F09CC08091D501811124C092
:107B90002091D7012F7009F493C02093E9008091C0
:107BA000EB0080FF19C08091EB00333011F480624C
:107BB00011C080618093EB0081E090E0022E01C053
:107BC000880F0A94EAF78093EA001092EA00809105
:107BD000EB0088608093EB001092E9008091E80050
:107BE000877F4FC021116CC01091D5011F77809104
:107BF000E3008078812B8093E3008091E800877F09
:107C00008093E80086DE8091E80080FFFCCF8091C1
:107C1000E30080688093E300112311F083E001C04A
:107C200082E08EBB4DC02058223008F049C0AE0122
:107C30004F5F5F4F6091D7018091D5019091D60140
:107C400083DD009709F43CC02091E800277F209352
:107C5000E800BC0189819A81B1DD8091E8008B77D1
:107C60008093E8002DC0203859F58091E800877F87
:107C70008093E8008091D1018093F1008091E80029
:107C80008E778093E80045DE1BC0211119C09091CA
:107C9000D5019230A8F48091E800877F8093E800B6
:107CA0009093D10136DE8091D101811104C0809181
:107CB000E30087FF02C084E001C081E08EBBFEDCF0
:107CC0008091E80083FF0AC08091E800877F80935D
:107CD000E8008091EB0080628093EB000F900F90A2
:107CE000DF91CF911F9108950895CF938EB388238C
:107CF000A9F08091E9008F709091EC0090FF02C094
:107D000090E801C090E0C92FC82B1092E900809143
:107D1000E80083FDF3DECF70C093E900CF910895B2
:107D2000EE0FFF1F0590F491E02D0994F999FECF15
:107D300092BD81BDF89A992780B50895262FF999AB
:107D4000FECF1FBA92BD81BD20BD0FB6F894FA9A3E
:0C7D5000F99A0FBE01960895F894FFCF39
:107D5C00777701000000000000080E0330003000AF
:107D6C00340035003800310000002E034D00610056
:107D7C0074007400610069007200540065006300B7
:107D8C0068002000430044004300200053006500BD
:107D9C007200690061006C00000020034D0061005E
:107DAC007400740061006900720054006500630087
:107DBC00680020004C004C00430000000403090440
:107DCC0009023E0002010080320904000001020297
:107DDC000100052400100104240202052406000100
:107DEC00070582030800FF09040100020A000000D5
:107DFC000705040210000507058302100005120197
:107E0C00100102000008D016570500010102030101
:087E1C004D542D4344432000A6
:040000030000700089
:00000001FF
