:1030000043C000005CC000005AC0000058C000006F
:1030100056C0000054C0000052C0000050C0000064
:103020004EC000004CC000004AC00000E9C40000CF
:1030300046C0000044C0000042C0000040C0000084
:103040003EC000003CC000003AC0000038C0000094
:1030500036C0000034C0000032C0000030C00000A4
:103060002EC000002CC000002AC0000028C00000B4
:1030700026C00000B51DD21D751ED21D751E071E6F
:10308000281E751E481E5A1E11241FBECFEFD2E007
:10309000DEBFCDBF11E0A0E0B1E0E6E8FDE302C095
:1030A00005900D92A83CB107D9F721E0A8ECB1E05A
:1030B00001C01D92AB3DB207E1F751D062C6A0CF6F
:1030C00084E08093E9008091E80085FD0EC0809146
:1030D000E8008B778093E8008091E80082FDF3CFD1
:1030E0008EB38111F9CF80E008958091F1000895A9
:1030F00093E09093E9009091E80095FF03C08093DE
:10310000F10008959091E8009E779093E8009091E7
:10311000E80090FDF4CF9EB39111F9CF089584B7E4
:103120008093DB0184B7877F84BF88E10FB6F89472
:1031300080936000109260000FBE90E080E80FB6B0
:10314000F89480936100909361000FBE57985F9A46
:103150008FEB9DE50197F1F700C000000895CF9334
:10316000DF9300D01F92CDB7DEB70091800210919F
:1031700081021092810210928002D1DF2091DB0146
:103180004F9909C023FF17C0809100019091010160
:103190000817190781F023FF07C080910001909163
:1031A00001010817190739F0E0E0F0E085919491EA
:1031B000019609F092C281E085BF82E085BF5898F0
:1031C000509A589A0ED478948FEF8093D001109231
:1031D000CF0183E085BDA4E02A2EB3E03B2E11E0B1
:1031E00005E0702E6624639480910201882309F41F
:1031F00063C22092E9008091E80082FF22C210920F
:10320000C9011092C8015CDF982F853439F088E835
:10321000890F823010F0943519F452DF8DE0A0C18F
:103220009035E1F39C34D1F3943721F489E460DFE5
:1032300080E096C1913611F489E592C1913491F400
:103240003FDF082F3DDF90E0880F991F202F30E0EF
:10325000322F2227330F822B932BAA2797FDA0957D
:10326000BA2F9CC1903711F483E57AC1933571F47C
:1032700070ECE72E71E0F72EF70181917F0138DFC6
:10328000F7ECEF16F1E0FF06B9F7B4C1963521F47B
:1032900081E32EDF80E364C1933731F482E828DFD5
:1032A00084E926DF8EE15CC19536A9F4E0E0F0E028
:1032B00030925700E89507B600FCFDCF709257009A
:1032C000E89507B600FCFDCFE058FF4FE11520E37D
:1032D000F20771F7A3CF923721F489E0E1E0F0E043
:1032E00011C0963421F4E0E0F0E089E00BC09E3498
:1032F00021F489E0E3E0F0E005C0913539F489E09C
:10330000E2E0F0E08093570084912AC1923631F4D4
:1033100089E5EEDE80E0ECDE80E822C1923419F02F
:10332000973609F0D5C09983CBDEA82EB12CBA2CE4
:10333000AA24C6DEA82AC4DE082F8BEB800F998151
:10334000823010F08FE30CC1973609F04AC0F1E1EA
:10335000F0935700E8954501B12C8114910409F4CC
:1033600049C1C090CB01D090CC01E090CD01F0904C
:10337000CE010634B9F4EB2DF0E0EC29FD2984915F
:10338000B7DEBB2069F022E0C20ED11CE11CF11CAB
:10339000C092CB01D092CC01E092CD01F092CE014F
:1033A000B1261BC0D701C601B695A79597958795FD
:1033B000D2D49EDE8091CB019091CC01A091CD0121
:1033C000B091CE010296A11DB11D8093CB019093C7
:1033D000CC01A093CD01B093CE0181E0881A910871
:1033E000BCCFC090CB01D090CC01E090CD01F0904B
:1033F000CE01063449F4F60130925700E89507B63D
:1034000000FCFDCF6092CA01BB82AA82412C512CE4
:10341000EA81FB81EF2B09F450C0063431F55520C9
:1034200001F18090CB019090CC01A090CD01B090A3
:10343000CE0146DE242D30E0382BF4010901109333
:103440005700E8951124F2E08F0E911CA11CB11CCD
:103450008092CB019092CC01A092CD01B092CE018E
:1034600002C02EDE482E512622C02ADE682F80910F
:10347000CB019091CC01A091CD01B091CE01B69538
:10348000A795979587956FD48091CB019091CC01AA
:10349000A091CD01B091CE010296A11DB11D8093E6
:1034A000CB019093CC01A093CD01B093CE018A8142
:1034B0009B8101979B838A83ABCF063409F0AECE04
:1034C000F60170925700E89507B600FCFDCFA6CE36
:1034D000933469F4E090CB01F090CC01F1DD90E001
:1034E000F7010C0110935700E895112497CE9336FD
:1034F000F9F4C090CB01D090CC01E090CD01F090D8
:10350000CE01DEDDF601E16090E00C011093570082
:10351000E8951124F2E0CF0ED11CE11CF11CC09201
:10352000CB01D092CC01E092CD01F092CE0176CECB
:103530009D3659F4E091CB01F091CC017092570087
:10354000E89507B600FCFDCF69CE923559F4E091BD
:10355000CB01F091CC01E590F4908F2DC9DD8E2D3B
:10356000C7DD48C0943419F5ABDD682F8091CB01DD
:103570009091CC01A091CD01B091CE01B695A795C7
:1035800097958795F0D38091CB019091CC01A09134
:10359000CD01B091CE010296A11DB11D8093CB014A
:1035A0009093CC01A093CD01B093CE0137CE943649
:1035B000F1F4C090CB01D090CC01E090CD01F0901F
:1035C000CE01D701C601B695A79597958795C3D328
:1035D0008FDD22E0C20ED11CE11CF11CC092CB0198
:1035E000D092CC01E092CD01F092CE0103C09B318C
:1035F00009F0A8CE3092E9009091E8008091E800AF
:103600008E778093E80095FD11C08091E80080FDE1
:1036100004C08EB38111F9CF14C08091E8008E7779
:103620008093E80003C08EB3882359F08091E800AE
:1036300080FFF9CF2092E9008091E8008B7780939A
:10364000E80068D38091C8019091C901893E9140FA
:1036500010F010920201AA9B26C0AA9A9091CF0165
:103660008091D001992341F08F3F21F41092CF0136
:103670008EEF0AC08F5F08C0811105C06092CF0134
:103680006092D00103C081508093D0018091CA0123
:10369000882349F08091C8019091C90101969093C7
:1036A000C9018093C80196B58091D001981710F494
:1036B000589A9ACD589898CD8091E0008160809377
:1036C000E0002DE088E190E00FB6F894A895809393
:1036D00060000FBE20936000FFCF5898509A589A10
:1036E000E0E0F0E0099542E061EC82E013D142E1D4
:1036F00061E883E00FD142E160E884E00BC1809192
:10370000D301982F9F77913299F59091D4019132FE
:1037100029F0923229F1903259F510C0813A41F5E1
:103720008091E800877F8093E80067E070E083E0A5
:1037300091E059D08091E8008B770FC08132C1F4BD
:103740008091E800877F8093E80067E070E083E085
:1037500091E0A6D08091E8008E778093E8000895EC
:10376000813231F48091E800877F8093E800E6C0E1
:103770000895292F30E02230310539F0233031050A
:1037800049F02130310571F412C08EE390E020E75A
:1037900031E025C0882381F0813099F08230B1F08A
:1037A0008330C9F080E090E020E030E018C082E192
:1037B00090E02EEA31E013C084E090E02CE631E0A6
:1037C0000EC080E290E02AE431E009C08EE290E091
:1037D0002AE131E004C08EE090E02AE031E0FA0115
:1037E0003183208308952091D9013091DA01261781
:1037F000370748F06115710539F42091E8002E77FC
:103800002093E80001C0B90120E061157105C9F1FC
:103810003EB3332309F440C0353009F43FC0309142
:10382000E80033FD37C03091E80032FF06C08091D8
:10383000E80082FF29C080E008953091E80030FF61
:10384000E4CF2091F20030E0FC01281B390BCF01BE
:10385000820F931F6115710549F08830910530F48E
:1038600081918093F10061507109F1CF21E00897B7
:1038700009F020E08091E8008E778093E800CF0186
:10388000C4CF2111C5CFD3CF8EB3882329F0853083
:1038900071F604C081E0089582E0089583E0089500
:1038A0006115710529F42091E8002B772093E80039
:1038B0006115710511F12EB3222341F1253041F13B
:1038C0002091E80023FD1EC02091E80022FFF3CFE5
:1038D000FC01CF012091F200222329F38091F10015
:1038E0008193CF01615071096115710591F7DBCFAB
:1038F0008EB3882359F0853059F08091E80080FF1D
:10390000F7CF02C081E0089580E0089582E0089535
:1039100083E008958F708093E900EBEEF0E0808102
:1039200081608083EDEEF0E010826093EC004083D4
:103930008091EE00881F8827881F08958091D30109
:1039400087FD05C08091E80080FF0DC010C0809108
:10395000E80082FD04C08EB38111F9CF08958091F3
:10396000E8008B7707C08EB38111ECCF089580916A
:10397000E8008E778093E80008953CD03ED0809197
:10398000D8008F778093D8008091D800806880938A
:10399000D8008091D8008F7D8093D80084E089BDC5
:1039A00086E089BD09B400FEFDCF1EBA1092D10198
:1039B00042E060E080E0AEDF8091E1008E7F8093A6
:1039C000E1008091E20081608093E2008091E2005A
:1039D00088608093E2008091E0008E7F8093E00019
:1039E0000895E3E6F0E080818E7F808381E080931C
:1039F000D201C3CF1092E20008951092E100089521
:103A00001F920F920FB60F9211242F933F934F9353
:103A10005F936F937F938F939F93AF93BF93EF9336
:103A2000FF938091E10080FF16C08091E20080FF4B
:103A300012C08091E2008E7F8093E2008091E200CC
:103A400080618093E2008091D80080628093D800EA
:103A500019BC1EBA5ED18091E10084FF2EC0809116
:103A6000E20084FF2AC084E089BD86E089BD09B4F4
:103A700000FEFDCF8091D8008F7D8093D80080918B
:103A8000E1008F7E8093E1008091E2008F7E809341
:103A9000E2008091E20081608093E2008091D10198
:103AA000882311F084E007C08091E30087FF02C003
:103AB00083E001C081E08EBB2CD18091E10083FFC7
:103AC00021C08091E20083FF1DC08091E100877FCB
:103AD0008093E10082E08EBB1092D1018091E100E1
:103AE0008E7F8093E1008091E2008E7F8093E200E0
:103AF0008091E20080618093E20042E060E080E03B
:103B000009DF07D1FF91EF91BF91AF919F918F9105
:103B10007F916F915F914F913F912F910F900FBEC9
:103B20000F901F9018951F93CF93DF9300D0CDB7C0
:103B3000DEB7E3EDF1E08091F100819381E0EB3DB0
:103B4000F807C9F7DCDD8091E80083FFCEC0209143
:103B5000D3013091D401832F90E08A30910508F091
:103B6000C4C0FC01E65CF74EF0C0203881F022387A
:103B700009F0BBC08091D7018F708093E9009091CC
:103B8000EB0095FB992790F91092E90001C090E0B5
:103B90008091E800877F8093E8009093F100109275
:103BA000F10081C0822F8D7F09F09FC0223009F083
:103BB0009CC08091D501811124C02091D7012F7024
:103BC00009F493C02093E9008091EB0080FF19C0B5
:103BD0008091EB00333011F4806211C080618093DA
:103BE000EB0081E090E0022E01C0880F0A94EAF712
:103BF0008093EA001092EA008091EB008860809345
:103C0000EB001092E9008091E800877F4FC02111FE
:103C10006CC01091D5011F778091E3008078812BD3
:103C20008093E3008091E800877F8093E80086DE40
:103C30008091E80080FFFCCF8091E3008068809352
:103C4000E300112311F083E001C082E08EBB4DC080
:103C50002058223008F049C0AE014F5F5F4F60919D
:103C6000D7018091D5019091D60183DD009709F4A9
:103C70003CC02091E800277F2093E800BC018981A7
:103C80009A81B1DD8091E8008B778093E8002DC0A8
:103C9000203859F58091E800877F8093E800809173
:103CA000D1018093F1008091E8008E778093E80045
:103CB00045DE1BC0211119C09091D5019230A8F4A6
:103CC0008091E800877F8093E8009093D10136DEF1
:103CD0008091D101811104C08091E30087FF02C06F
:103CE00084E001C081E08EBBFEDC8091E80083FFB0
:103CF0000AC08091E800877F8093E8008091EB0004
:103D000080628093EB000F900F90DF91CF911F9115
:103D100008950895CF938EB38823A9F08091E90088
:103D20008F709091EC0090FF02C090E801C090E08D
:103D3000C92FC82B1092E9008091E80083FDF3DEC3
:103D4000CF70C093E900CF910895EE0FFF1F05904B
:103D5000F491E02D0994F999FECF92BD81BDF89AB6
:103D6000992780B50895262FF999FECF1FBA92BDE5
:103D700081BD20BD0FB6F894FA9AF99A0FBE01964C
:063D80000895F894FFCF46
:103D8600777701000000000000080E0330003000C5
:103D9600340035003800330000002E034D0061006A
:103DA60074007400610069007200540065006300CD
:103DB60068002000430044004300200053006500D3
:103DC6007200690061006C00000020034D00610074
:103DD600740074006100690072005400650063009D
:103DE600680020004C004C00430000000403090456
:103DF60009023E00020100803209040000010202AD
:103E06000100052400100104240202052406000115
:103E1600070582030800FF09040100020A000000EA
:103E260007050402100005070583021000051201AC
:103E3600100102000008D016570500010102030117
:083E46004D542D4344432000BC
:0400000300003000C9
:00000001FF
